{
  "_format": "hh-sol-artifact-1",
  "contractName": "tgNFT",
  "sourceName": "contracts/tgNFT.sol",
  "abi": [
    {
      "inputs": [],
      "stateMutability": "nonpayable",
      "type": "constructor"
    },
    {
      "anonymous": false,
      "inputs": [
        {
          "indexed": true,
          "internalType": "address",
          "name": "owner",
          "type": "address"
        },
        {
          "indexed": true,
          "internalType": "address",
          "name": "approved",
          "type": "address"
        },
        {
          "indexed": true,
          "internalType": "uint256",
          "name": "tokenId",
          "type": "uint256"
        }
      ],
      "name": "Approval",
      "type": "event"
    },
    {
      "anonymous": false,
      "inputs": [
        {
          "indexed": true,
          "internalType": "address",
          "name": "owner",
          "type": "address"
        },
        {
          "indexed": true,
          "internalType": "address",
          "name": "operator",
          "type": "address"
        },
        {
          "indexed": false,
          "internalType": "bool",
          "name": "approved",
          "type": "bool"
        }
      ],
      "name": "ApprovalForAll",
      "type": "event"
    },
    {
      "anonymous": false,
      "inputs": [
        {
          "indexed": false,
          "internalType": "address",
          "name": "sender",
          "type": "address"
        },
        {
          "indexed": false,
          "internalType": "uint256",
          "name": "tokenId",
          "type": "uint256"
        }
      ],
      "name": "NewEpicNFTMinted",
      "type": "event"
    },
    {
      "anonymous": false,
      "inputs": [
        {
          "indexed": true,
          "internalType": "address",
          "name": "from",
          "type": "address"
        },
        {
          "indexed": true,
          "internalType": "address",
          "name": "to",
          "type": "address"
        },
        {
          "indexed": true,
          "internalType": "uint256",
          "name": "tokenId",
          "type": "uint256"
        }
      ],
      "name": "Transfer",
      "type": "event"
    },
    {
      "inputs": [],
      "name": "NFT_AMOUNT",
      "outputs": [
        {
          "internalType": "uint256",
          "name": "",
          "type": "uint256"
        }
      ],
      "stateMutability": "view",
      "type": "function"
    },
    {
      "inputs": [
        {
          "internalType": "address",
          "name": "to",
          "type": "address"
        },
        {
          "internalType": "uint256",
          "name": "tokenId",
          "type": "uint256"
        }
      ],
      "name": "approve",
      "outputs": [],
      "stateMutability": "nonpayable",
      "type": "function"
    },
    {
      "inputs": [
        {
          "internalType": "address",
          "name": "owner",
          "type": "address"
        }
      ],
      "name": "balanceOf",
      "outputs": [
        {
          "internalType": "uint256",
          "name": "",
          "type": "uint256"
        }
      ],
      "stateMutability": "view",
      "type": "function"
    },
    {
      "inputs": [
        {
          "internalType": "uint256",
          "name": "tokenId",
          "type": "uint256"
        }
      ],
      "name": "getApproved",
      "outputs": [
        {
          "internalType": "address",
          "name": "",
          "type": "address"
        }
      ],
      "stateMutability": "view",
      "type": "function"
    },
    {
      "inputs": [],
      "name": "getTotalMintedNFTUrls",
      "outputs": [
        {
          "internalType": "string[]",
          "name": "",
          "type": "string[]"
        }
      ],
      "stateMutability": "view",
      "type": "function"
    },
    {
      "inputs": [],
      "name": "getTotalNFTsMintedSoFar",
      "outputs": [
        {
          "internalType": "uint256",
          "name": "",
          "type": "uint256"
        }
      ],
      "stateMutability": "view",
      "type": "function"
    },
    {
      "inputs": [
        {
          "internalType": "address",
          "name": "owner",
          "type": "address"
        },
        {
          "internalType": "address",
          "name": "operator",
          "type": "address"
        }
      ],
      "name": "isApprovedForAll",
      "outputs": [
        {
          "internalType": "bool",
          "name": "",
          "type": "bool"
        }
      ],
      "stateMutability": "view",
      "type": "function"
    },
    {
      "inputs": [
        {
          "internalType": "string",
          "name": "_uri",
          "type": "string"
        }
      ],
      "name": "makeAnEpicNFT",
      "outputs": [],
      "stateMutability": "nonpayable",
      "type": "function"
    },
    {
      "inputs": [],
      "name": "mintedNFT",
      "outputs": [
        {
          "internalType": "uint256",
          "name": "",
          "type": "uint256"
        }
      ],
      "stateMutability": "view",
      "type": "function"
    },
    {
      "inputs": [],
      "name": "name",
      "outputs": [
        {
          "internalType": "string",
          "name": "",
          "type": "string"
        }
      ],
      "stateMutability": "view",
      "type": "function"
    },
    {
      "inputs": [
        {
          "internalType": "uint256",
          "name": "tokenId",
          "type": "uint256"
        }
      ],
      "name": "ownerOf",
      "outputs": [
        {
          "internalType": "address",
          "name": "",
          "type": "address"
        }
      ],
      "stateMutability": "view",
      "type": "function"
    },
    {
      "inputs": [
        {
          "internalType": "address",
          "name": "from",
          "type": "address"
        },
        {
          "internalType": "address",
          "name": "to",
          "type": "address"
        },
        {
          "internalType": "uint256",
          "name": "tokenId",
          "type": "uint256"
        }
      ],
      "name": "safeTransferFrom",
      "outputs": [],
      "stateMutability": "nonpayable",
      "type": "function"
    },
    {
      "inputs": [
        {
          "internalType": "address",
          "name": "from",
          "type": "address"
        },
        {
          "internalType": "address",
          "name": "to",
          "type": "address"
        },
        {
          "internalType": "uint256",
          "name": "tokenId",
          "type": "uint256"
        },
        {
          "internalType": "bytes",
          "name": "data",
          "type": "bytes"
        }
      ],
      "name": "safeTransferFrom",
      "outputs": [],
      "stateMutability": "nonpayable",
      "type": "function"
    },
    {
      "inputs": [
        {
          "internalType": "address",
          "name": "operator",
          "type": "address"
        },
        {
          "internalType": "bool",
          "name": "approved",
          "type": "bool"
        }
      ],
      "name": "setApprovalForAll",
      "outputs": [],
      "stateMutability": "nonpayable",
      "type": "function"
    },
    {
      "inputs": [
        {
          "internalType": "bytes4",
          "name": "interfaceId",
          "type": "bytes4"
        }
      ],
      "name": "supportsInterface",
      "outputs": [
        {
          "internalType": "bool",
          "name": "",
          "type": "bool"
        }
      ],
      "stateMutability": "view",
      "type": "function"
    },
    {
      "inputs": [],
      "name": "symbol",
      "outputs": [
        {
          "internalType": "string",
          "name": "",
          "type": "string"
        }
      ],
      "stateMutability": "view",
      "type": "function"
    },
    {
      "inputs": [
        {
          "internalType": "uint256",
          "name": "tokenId",
          "type": "uint256"
        }
      ],
      "name": "tokenURI",
      "outputs": [
        {
          "internalType": "string",
          "name": "",
          "type": "string"
        }
      ],
      "stateMutability": "view",
      "type": "function"
    },
    {
      "inputs": [
        {
          "internalType": "address",
          "name": "from",
          "type": "address"
        },
        {
          "internalType": "address",
          "name": "to",
          "type": "address"
        },
        {
          "internalType": "uint256",
          "name": "tokenId",
          "type": "uint256"
        }
      ],
      "name": "transferFrom",
      "outputs": [],
      "stateMutability": "nonpayable",
      "type": "function"
    }
  ],
  "bytecode": "0x60806040523480156200001157600080fd5b506040518060400160405280600b81526020017f5479706572476f644e46540000000000000000000000000000000000000000008152506040518060400160405280600381526020017f54474e0000000000000000000000000000000000000000000000000000000000815250816000908051906020019062000096929190620001cf565b508060019080519060200190620000af929190620001cf565b505050620000fd6040518060400160405280601e81526020017f54686973206973206d79204e465420636f6e74726163742e20576f61682100008152506200010360201b62000d941760201c565b620003ac565b620001a3816040516024016200011a919062000323565b6040516020818303038152906040527f41304fac000000000000000000000000000000000000000000000000000000007bffffffffffffffffffffffffffffffffffffffffffffffffffffffff19166020820180517bffffffffffffffffffffffffffffffffffffffffffffffffffffffff8381831617835250505050620001a660201b60201c565b50565b60008151905060006a636f6e736f6c652e6c6f679050602083016000808483855afa5050505050565b828054620001dd9062000376565b90600052602060002090601f0160209004810192826200020157600085556200024d565b82601f106200021c57805160ff19168380011785556200024d565b828001600101855582156200024d579182015b828111156200024c5782518255916020019190600101906200022f565b5b5090506200025c919062000260565b5090565b5b808211156200027b57600081600090555060010162000261565b5090565b600081519050919050565b600082825260208201905092915050565b60005b83811015620002bb5780820151818401526020810190506200029e565b83811115620002cb576000848401525b50505050565b6000601f19601f8301169050919050565b6000620002ef826200027f565b620002fb81856200028a565b93506200030d8185602086016200029b565b6200031881620002d1565b840191505092915050565b600060208201905081810360008301526200033f8184620002e2565b905092915050565b7f4e487b7100000000000000000000000000000000000000000000000000000000600052602260045260246000fd5b600060028204905060018216806200038f57607f821691505b60208210811415620003a657620003a562000347565b5b50919050565b612f7d80620003bc6000396000f3fe608060405234801561001057600080fd5b50600436106101165760003560e01c80636f0b7871116100a2578063a22cb46511610071578063a22cb465146102e1578063b88d4fde146102fd578063c87b56dd14610319578063e985e9c514610349578063f18785a81461037957610116565b80636f0b7871146102575780636f0c389e1461027557806370a082311461029357806395d89b41146102c357610116565b8063095ea7b3116100e9578063095ea7b3146101b757806323b872dd146101d357806339fa8daf146101ef57806342842e0e1461020b5780636352211e1461022757610116565b806301ffc9a71461011b578063060475901461014b57806306fdde0314610169578063081812fc14610187575b600080fd5b61013560048036038101906101309190611d3a565b610397565b6040516101429190611d82565b60405180910390f35b610153610479565b6040516101609190611db6565b60405180910390f35b610171610483565b60405161017e9190611e6a565b60405180910390f35b6101a1600480360381019061019c9190611eb8565b610515565b6040516101ae9190611f26565b60405180910390f35b6101d160048036038101906101cc9190611f6d565b61055b565b005b6101ed60048036038101906101e89190611fad565b610673565b005b61020960048036038101906102049190612135565b6106d3565b005b61022560048036038101906102209190611fad565b610838565b005b610241600480360381019061023c9190611eb8565b610858565b60405161024e9190611f26565b60405180910390f35b61025f61090a565b60405161026c9190611db6565b60405180910390f35b61027d610910565b60405161028a919061228a565b60405180910390f35b6102ad60048036038101906102a891906122ac565b610a26565b6040516102ba9190611db6565b60405180910390f35b6102cb610ade565b6040516102d89190611e6a565b60405180910390f35b6102fb60048036038101906102f69190612305565b610b70565b005b610317600480360381019061031291906123e6565b610b86565b005b610333600480360381019061032e9190611eb8565b610be8565b6040516103409190611e6a565b60405180910390f35b610363600480360381019061035e9190612469565b610cfb565b6040516103709190611d82565b60405180910390f35b610381610d8f565b60405161038e9190611db6565b60405180910390f35b60007f80ac58cd000000000000000000000000000000000000000000000000000000007bffffffffffffffffffffffffffffffffffffffffffffffffffffffff1916827bffffffffffffffffffffffffffffffffffffffffffffffffffffffff1916148061046257507f5b5e139f000000000000000000000000000000000000000000000000000000007bffffffffffffffffffffffffffffffffffffffffffffffffffffffff1916827bffffffffffffffffffffffffffffffffffffffffffffffffffffffff1916145b80610472575061047182610e2d565b5b9050919050565b6000600854905090565b606060008054610492906124d8565b80601f01602080910402602001604051908101604052809291908181526020018280546104be906124d8565b801561050b5780601f106104e05761010080835404028352916020019161050b565b820191906000526020600020905b8154815290600101906020018083116104ee57829003601f168201915b5050505050905090565b600061052082610e97565b6004600083815260200190815260200160002060009054906101000a900473ffffffffffffffffffffffffffffffffffffffff169050919050565b600061056682610858565b90508073ffffffffffffffffffffffffffffffffffffffff168373ffffffffffffffffffffffffffffffffffffffff1614156105d7576040517f08c379a00000000000000000000000000000000000000000000000000000000081526004016105ce9061257c565b60405180910390fd5b8073ffffffffffffffffffffffffffffffffffffffff166105f6610ee2565b73ffffffffffffffffffffffffffffffffffffffff16148061062557506106248161061f610ee2565b610cfb565b5b610664576040517f08c379a000000000000000000000000000000000000000000000000000000000815260040161065b9061260e565b60405180910390fd5b61066e8383610eea565b505050565b61068461067e610ee2565b82610fa3565b6106c3576040517f08c379a00000000000000000000000000000000000000000000000000000000081526004016106ba906126a0565b60405180910390fd5b6106ce838383611038565b505050565b60006106df600761129f565b90506001600860008282546106f491906126ef565b9250508190555060646008541115610741576040517f08c379a000000000000000000000000000000000000000000000000000000000815260040161073890612791565b60405180910390fd5b61074b33826112ad565b61075581836112cb565b600960003373ffffffffffffffffffffffffffffffffffffffff1673ffffffffffffffffffffffffffffffffffffffff168152602001908152602001600020829080600181540180825580915050600190039060005260206000200160009091909190915090805190602001906107cd929190611c2b565b506107f1604051806060016040528060258152602001612f2360259139823361133f565b6107fb60076113de565b7febb98688741ffa4c7589bf325de30cf7becb63de567842e1ccdb6cb949fdc82c338260405161082c9291906127b1565b60405180910390a15050565b61085383838360405180602001604052806000815250610b86565b505050565b6000806002600084815260200190815260200160002060009054906101000a900473ffffffffffffffffffffffffffffffffffffffff169050600073ffffffffffffffffffffffffffffffffffffffff168173ffffffffffffffffffffffffffffffffffffffff161415610901576040517f08c379a00000000000000000000000000000000000000000000000000000000081526004016108f890612826565b60405180910390fd5b80915050919050565b60085481565b6060600960003373ffffffffffffffffffffffffffffffffffffffff1673ffffffffffffffffffffffffffffffffffffffff168152602001908152602001600020805480602002602001604051908101604052809291908181526020016000905b82821015610a1d578382906000526020600020018054610990906124d8565b80601f01602080910402602001604051908101604052809291908181526020018280546109bc906124d8565b8015610a095780601f106109de57610100808354040283529160200191610a09565b820191906000526020600020905b8154815290600101906020018083116109ec57829003601f168201915b505050505081526020019060010190610971565b50505050905090565b60008073ffffffffffffffffffffffffffffffffffffffff168273ffffffffffffffffffffffffffffffffffffffff161415610a97576040517f08c379a0000000000000000000000000000000000000000000000000000000008152600401610a8e906128b8565b60405180910390fd5b600360008373ffffffffffffffffffffffffffffffffffffffff1673ffffffffffffffffffffffffffffffffffffffff168152602001908152602001600020549050919050565b606060018054610aed906124d8565b80601f0160208091040260200160405190810160405280929190818152602001828054610b19906124d8565b8015610b665780601f10610b3b57610100808354040283529160200191610b66565b820191906000526020600020905b815481529060010190602001808311610b4957829003601f168201915b5050505050905090565b610b82610b7b610ee2565b83836113f4565b5050565b610b97610b91610ee2565b83610fa3565b610bd6576040517f08c379a0000000000000000000000000000000000000000000000000000000008152600401610bcd906126a0565b60405180910390fd5b610be284848484611561565b50505050565b6060610bf382610e97565b6000600660008481526020019081526020016000208054610c13906124d8565b80601f0160208091040260200160405190810160405280929190818152602001828054610c3f906124d8565b8015610c8c5780601f10610c6157610100808354040283529160200191610c8c565b820191906000526020600020905b815481529060010190602001808311610c6f57829003601f168201915b505050505090506000610c9d6115bd565b9050600081511415610cb3578192505050610cf6565b600082511115610ce8578082604051602001610cd0929190612914565b60405160208183030381529060405292505050610cf6565b610cf1846115d4565b925050505b919050565b6000600560008473ffffffffffffffffffffffffffffffffffffffff1673ffffffffffffffffffffffffffffffffffffffff16815260200190815260200160002060008373ffffffffffffffffffffffffffffffffffffffff1673ffffffffffffffffffffffffffffffffffffffff16815260200190815260200160002060009054906101000a900460ff16905092915050565b606481565b610e2a81604051602401610da89190611e6a565b6040516020818303038152906040527f41304fac000000000000000000000000000000000000000000000000000000007bffffffffffffffffffffffffffffffffffffffffffffffffffffffff19166020820180517bffffffffffffffffffffffffffffffffffffffffffffffffffffffff838183161783525050505061163c565b50565b60007f01ffc9a7000000000000000000000000000000000000000000000000000000007bffffffffffffffffffffffffffffffffffffffffffffffffffffffff1916827bffffffffffffffffffffffffffffffffffffffffffffffffffffffff1916149050919050565b610ea081611665565b610edf576040517f08c379a0000000000000000000000000000000000000000000000000000000008152600401610ed690612826565b60405180910390fd5b50565b600033905090565b816004600083815260200190815260200160002060006101000a81548173ffffffffffffffffffffffffffffffffffffffff021916908373ffffffffffffffffffffffffffffffffffffffff160217905550808273ffffffffffffffffffffffffffffffffffffffff16610f5d83610858565b73ffffffffffffffffffffffffffffffffffffffff167f8c5be1e5ebec7d5bd14f71427d1e84f3dd0314c0f7b2291e5b200ac8c7c3b92560405160405180910390a45050565b600080610faf83610858565b90508073ffffffffffffffffffffffffffffffffffffffff168473ffffffffffffffffffffffffffffffffffffffff161480610ff15750610ff08185610cfb565b5b8061102f57508373ffffffffffffffffffffffffffffffffffffffff1661101784610515565b73ffffffffffffffffffffffffffffffffffffffff16145b91505092915050565b8273ffffffffffffffffffffffffffffffffffffffff1661105882610858565b73ffffffffffffffffffffffffffffffffffffffff16146110ae576040517f08c379a00000000000000000000000000000000000000000000000000000000081526004016110a5906129aa565b60405180910390fd5b600073ffffffffffffffffffffffffffffffffffffffff168273ffffffffffffffffffffffffffffffffffffffff16141561111e576040517f08c379a000000000000000000000000000000000000000000000000000000000815260040161111590612a3c565b60405180910390fd5b6111298383836116d1565b611134600082610eea565b6001600360008573ffffffffffffffffffffffffffffffffffffffff1673ffffffffffffffffffffffffffffffffffffffff16815260200190815260200160002060008282546111849190612a5c565b925050819055506001600360008473ffffffffffffffffffffffffffffffffffffffff1673ffffffffffffffffffffffffffffffffffffffff16815260200190815260200160002060008282546111db91906126ef565b92505081905550816002600083815260200190815260200160002060006101000a81548173ffffffffffffffffffffffffffffffffffffffff021916908373ffffffffffffffffffffffffffffffffffffffff160217905550808273ffffffffffffffffffffffffffffffffffffffff168473ffffffffffffffffffffffffffffffffffffffff167fddf252ad1be2c89b69c2b068fc378daa952ba7f163c4a11628f55a4df523b3ef60405160405180910390a461129a8383836116d6565b505050565b600081600001549050919050565b6112c78282604051806020016040528060008152506116db565b5050565b6112d482611665565b611313576040517f08c379a000000000000000000000000000000000000000000000000000000000815260040161130a90612b02565b60405180910390fd5b8060066000848152602001908152602001600020908051906020019061133a929190611c2b565b505050565b6113d983838360405160240161135793929190612b22565b6040516020818303038152906040527fe3849f79000000000000000000000000000000000000000000000000000000007bffffffffffffffffffffffffffffffffffffffffffffffffffffffff19166020820180517bffffffffffffffffffffffffffffffffffffffffffffffffffffffff838183161783525050505061163c565b505050565b6001816000016000828254019250508190555050565b8173ffffffffffffffffffffffffffffffffffffffff168373ffffffffffffffffffffffffffffffffffffffff161415611463576040517f08c379a000000000000000000000000000000000000000000000000000000000815260040161145a90612bac565b60405180910390fd5b80600560008573ffffffffffffffffffffffffffffffffffffffff1673ffffffffffffffffffffffffffffffffffffffff16815260200190815260200160002060008473ffffffffffffffffffffffffffffffffffffffff1673ffffffffffffffffffffffffffffffffffffffff16815260200190815260200160002060006101000a81548160ff0219169083151502179055508173ffffffffffffffffffffffffffffffffffffffff168373ffffffffffffffffffffffffffffffffffffffff167f17307eab39ab6107e8899845ad3d59bd9653f200f220920489ca2b5937696c31836040516115549190611d82565b60405180910390a3505050565b61156c848484611038565b61157884848484611736565b6115b7576040517f08c379a00000000000000000000000000000000000000000000000000000000081526004016115ae90612c3e565b60405180910390fd5b50505050565b606060405180602001604052806000815250905090565b60606115df82610e97565b60006115e96115bd565b905060008151116116095760405180602001604052806000815250611634565b80611613846118cd565b604051602001611624929190612914565b6040516020818303038152906040525b915050919050565b60008151905060006a636f6e736f6c652e6c6f679050602083016000808483855afa5050505050565b60008073ffffffffffffffffffffffffffffffffffffffff166002600084815260200190815260200160002060009054906101000a900473ffffffffffffffffffffffffffffffffffffffff1673ffffffffffffffffffffffffffffffffffffffff1614159050919050565b505050565b505050565b6116e58383611a2e565b6116f26000848484611736565b611731576040517f08c379a000000000000000000000000000000000000000000000000000000000815260040161172890612c3e565b60405180910390fd5b505050565b60006117578473ffffffffffffffffffffffffffffffffffffffff16611c08565b156118c0578373ffffffffffffffffffffffffffffffffffffffff1663150b7a02611780610ee2565b8786866040518563ffffffff1660e01b81526004016117a29493929190612cb3565b602060405180830381600087803b1580156117bc57600080fd5b505af19250505080156117ed57506040513d601f19601f820116820180604052508101906117ea9190612d14565b60015b611870573d806000811461181d576040519150601f19603f3d011682016040523d82523d6000602084013e611822565b606091505b50600081511415611868576040517f08c379a000000000000000000000000000000000000000000000000000000000815260040161185f90612c3e565b60405180910390fd5b805181602001fd5b63150b7a0260e01b7bffffffffffffffffffffffffffffffffffffffffffffffffffffffff1916817bffffffffffffffffffffffffffffffffffffffffffffffffffffffff1916149150506118c5565b600190505b949350505050565b60606000821415611915576040518060400160405280600181526020017f30000000000000000000000000000000000000000000000000000000000000008152509050611a29565b600082905060005b6000821461194757808061193090612d41565b915050600a826119409190612db9565b915061191d565b60008167ffffffffffffffff8111156119635761196261200a565b5b6040519080825280601f01601f1916602001820160405280156119955781602001600182028036833780820191505090505b5090505b60008514611a22576001826119ae9190612a5c565b9150600a856119bd9190612dea565b60306119c991906126ef565b60f81b8183815181106119df576119de612e1b565b5b60200101907effffffffffffffffffffffffffffffffffffffffffffffffffffffffffffff1916908160001a905350600a85611a1b9190612db9565b9450611999565b8093505050505b919050565b600073ffffffffffffffffffffffffffffffffffffffff168273ffffffffffffffffffffffffffffffffffffffff161415611a9e576040517f08c379a0000000000000000000000000000000000000000000000000000000008152600401611a9590612e96565b60405180910390fd5b611aa781611665565b15611ae7576040517f08c379a0000000000000000000000000000000000000000000000000000000008152600401611ade90612f02565b60405180910390fd5b611af3600083836116d1565b6001600360008473ffffffffffffffffffffffffffffffffffffffff1673ffffffffffffffffffffffffffffffffffffffff1681526020019081526020016000206000828254611b4391906126ef565b92505081905550816002600083815260200190815260200160002060006101000a81548173ffffffffffffffffffffffffffffffffffffffff021916908373ffffffffffffffffffffffffffffffffffffffff160217905550808273ffffffffffffffffffffffffffffffffffffffff16600073ffffffffffffffffffffffffffffffffffffffff167fddf252ad1be2c89b69c2b068fc378daa952ba7f163c4a11628f55a4df523b3ef60405160405180910390a4611c04600083836116d6565b5050565b6000808273ffffffffffffffffffffffffffffffffffffffff163b119050919050565b828054611c37906124d8565b90600052602060002090601f016020900481019282611c595760008555611ca0565b82601f10611c7257805160ff1916838001178555611ca0565b82800160010185558215611ca0579182015b82811115611c9f578251825591602001919060010190611c84565b5b509050611cad9190611cb1565b5090565b5b80821115611cca576000816000905550600101611cb2565b5090565b6000604051905090565b600080fd5b600080fd5b60007fffffffff0000000000000000000000000000000000000000000000000000000082169050919050565b611d1781611ce2565b8114611d2257600080fd5b50565b600081359050611d3481611d0e565b92915050565b600060208284031215611d5057611d4f611cd8565b5b6000611d5e84828501611d25565b91505092915050565b60008115159050919050565b611d7c81611d67565b82525050565b6000602082019050611d976000830184611d73565b92915050565b6000819050919050565b611db081611d9d565b82525050565b6000602082019050611dcb6000830184611da7565b92915050565b600081519050919050565b600082825260208201905092915050565b60005b83811015611e0b578082015181840152602081019050611df0565b83811115611e1a576000848401525b50505050565b6000601f19601f8301169050919050565b6000611e3c82611dd1565b611e468185611ddc565b9350611e56818560208601611ded565b611e5f81611e20565b840191505092915050565b60006020820190508181036000830152611e848184611e31565b905092915050565b611e9581611d9d565b8114611ea057600080fd5b50565b600081359050611eb281611e8c565b92915050565b600060208284031215611ece57611ecd611cd8565b5b6000611edc84828501611ea3565b91505092915050565b600073ffffffffffffffffffffffffffffffffffffffff82169050919050565b6000611f1082611ee5565b9050919050565b611f2081611f05565b82525050565b6000602082019050611f3b6000830184611f17565b92915050565b611f4a81611f05565b8114611f5557600080fd5b50565b600081359050611f6781611f41565b92915050565b60008060408385031215611f8457611f83611cd8565b5b6000611f9285828601611f58565b9250506020611fa385828601611ea3565b9150509250929050565b600080600060608486031215611fc657611fc5611cd8565b5b6000611fd486828701611f58565b9350506020611fe586828701611f58565b9250506040611ff686828701611ea3565b9150509250925092565b600080fd5b600080fd5b7f4e487b7100000000000000000000000000000000000000000000000000000000600052604160045260246000fd5b61204282611e20565b810181811067ffffffffffffffff821117156120615761206061200a565b5b80604052505050565b6000612074611cce565b90506120808282612039565b919050565b600067ffffffffffffffff8211156120a05761209f61200a565b5b6120a982611e20565b9050602081019050919050565b82818337600083830152505050565b60006120d86120d384612085565b61206a565b9050828152602081018484840111156120f4576120f3612005565b5b6120ff8482856120b6565b509392505050565b600082601f83011261211c5761211b612000565b5b813561212c8482602086016120c5565b91505092915050565b60006020828403121561214b5761214a611cd8565b5b600082013567ffffffffffffffff81111561216957612168611cdd565b5b61217584828501612107565b91505092915050565b600081519050919050565b600082825260208201905092915050565b6000819050602082019050919050565b600082825260208201905092915050565b60006121c682611dd1565b6121d081856121aa565b93506121e0818560208601611ded565b6121e981611e20565b840191505092915050565b600061220083836121bb565b905092915050565b6000602082019050919050565b60006122208261217e565b61222a8185612189565b93508360208202850161223c8561219a565b8060005b85811015612278578484038952815161225985826121f4565b945061226483612208565b925060208a01995050600181019050612240565b50829750879550505050505092915050565b600060208201905081810360008301526122a48184612215565b905092915050565b6000602082840312156122c2576122c1611cd8565b5b60006122d084828501611f58565b91505092915050565b6122e281611d67565b81146122ed57600080fd5b50565b6000813590506122ff816122d9565b92915050565b6000806040838503121561231c5761231b611cd8565b5b600061232a85828601611f58565b925050602061233b858286016122f0565b9150509250929050565b600067ffffffffffffffff8211156123605761235f61200a565b5b61236982611e20565b9050602081019050919050565b600061238961238484612345565b61206a565b9050828152602081018484840111156123a5576123a4612005565b5b6123b08482856120b6565b509392505050565b600082601f8301126123cd576123cc612000565b5b81356123dd848260208601612376565b91505092915050565b60008060008060808587031215612400576123ff611cd8565b5b600061240e87828801611f58565b945050602061241f87828801611f58565b935050604061243087828801611ea3565b925050606085013567ffffffffffffffff81111561245157612450611cdd565b5b61245d878288016123b8565b91505092959194509250565b600080604083850312156124805761247f611cd8565b5b600061248e85828601611f58565b925050602061249f85828601611f58565b9150509250929050565b7f4e487b7100000000000000000000000000000000000000000000000000000000600052602260045260246000fd5b600060028204905060018216806124f057607f821691505b60208210811415612504576125036124a9565b5b50919050565b7f4552433732313a20617070726f76616c20746f2063757272656e74206f776e6560008201527f7200000000000000000000000000000000000000000000000000000000000000602082015250565b6000612566602183611ddc565b91506125718261250a565b604082019050919050565b6000602082019050818103600083015261259581612559565b9050919050565b7f4552433732313a20617070726f76652063616c6c6572206973206e6f7420746f60008201527f6b656e206f776e6572206e6f7220617070726f76656420666f7220616c6c0000602082015250565b60006125f8603e83611ddc565b91506126038261259c565b604082019050919050565b60006020820190508181036000830152612627816125eb565b9050919050565b7f4552433732313a2063616c6c6572206973206e6f7420746f6b656e206f776e6560008201527f72206e6f7220617070726f766564000000000000000000000000000000000000602082015250565b600061268a602e83611ddc565b91506126958261262e565b604082019050919050565b600060208201905081810360008301526126b98161267d565b9050919050565b7f4e487b7100000000000000000000000000000000000000000000000000000000600052601160045260246000fd5b60006126fa82611d9d565b915061270583611d9d565b9250827fffffffffffffffffffffffffffffffffffffffffffffffffffffffffffffffff0382111561273a576127396126c0565b5b828201905092915050565b7f494e56414c49445f4e46545f494e444558000000000000000000000000000000600082015250565b600061277b601183611ddc565b915061278682612745565b602082019050919050565b600060208201905081810360008301526127aa8161276e565b9050919050565b60006040820190506127c66000830185611f17565b6127d36020830184611da7565b9392505050565b7f4552433732313a20696e76616c696420746f6b656e2049440000000000000000600082015250565b6000612810601883611ddc565b915061281b826127da565b602082019050919050565b6000602082019050818103600083015261283f81612803565b9050919050565b7f4552433732313a2061646472657373207a65726f206973206e6f74206120766160008201527f6c6964206f776e65720000000000000000000000000000000000000000000000602082015250565b60006128a2602983611ddc565b91506128ad82612846565b604082019050919050565b600060208201905081810360008301526128d181612895565b9050919050565b600081905092915050565b60006128ee82611dd1565b6128f881856128d8565b9350612908818560208601611ded565b80840191505092915050565b600061292082856128e3565b915061292c82846128e3565b91508190509392505050565b7f4552433732313a207472616e736665722066726f6d20696e636f72726563742060008201527f6f776e6572000000000000000000000000000000000000000000000000000000602082015250565b6000612994602583611ddc565b915061299f82612938565b604082019050919050565b600060208201905081810360008301526129c381612987565b9050919050565b7f4552433732313a207472616e7366657220746f20746865207a65726f2061646460008201527f7265737300000000000000000000000000000000000000000000000000000000602082015250565b6000612a26602483611ddc565b9150612a31826129ca565b604082019050919050565b60006020820190508181036000830152612a5581612a19565b9050919050565b6000612a6782611d9d565b9150612a7283611d9d565b925082821015612a8557612a846126c0565b5b828203905092915050565b7f45524337323155524953746f726167653a2055524920736574206f66206e6f6e60008201527f6578697374656e7420746f6b656e000000000000000000000000000000000000602082015250565b6000612aec602e83611ddc565b9150612af782612a90565b604082019050919050565b60006020820190508181036000830152612b1b81612adf565b9050919050565b60006060820190508181036000830152612b3c8186611e31565b9050612b4b6020830185611da7565b612b586040830184611f17565b949350505050565b7f4552433732313a20617070726f766520746f2063616c6c657200000000000000600082015250565b6000612b96601983611ddc565b9150612ba182612b60565b602082019050919050565b60006020820190508181036000830152612bc581612b89565b9050919050565b7f4552433732313a207472616e7366657220746f206e6f6e20455243373231526560008201527f63656976657220696d706c656d656e7465720000000000000000000000000000602082015250565b6000612c28603283611ddc565b9150612c3382612bcc565b604082019050919050565b60006020820190508181036000830152612c5781612c1b565b9050919050565b600081519050919050565b600082825260208201905092915050565b6000612c8582612c5e565b612c8f8185612c69565b9350612c9f818560208601611ded565b612ca881611e20565b840191505092915050565b6000608082019050612cc86000830187611f17565b612cd56020830186611f17565b612ce26040830185611da7565b8181036060830152612cf48184612c7a565b905095945050505050565b600081519050612d0e81611d0e565b92915050565b600060208284031215612d2a57612d29611cd8565b5b6000612d3884828501612cff565b91505092915050565b6000612d4c82611d9d565b91507fffffffffffffffffffffffffffffffffffffffffffffffffffffffffffffffff821415612d7f57612d7e6126c0565b5b600182019050919050565b7f4e487b7100000000000000000000000000000000000000000000000000000000600052601260045260246000fd5b6000612dc482611d9d565b9150612dcf83611d9d565b925082612ddf57612dde612d8a565b5b828204905092915050565b6000612df582611d9d565b9150612e0083611d9d565b925082612e1057612e0f612d8a565b5b828206905092915050565b7f4e487b7100000000000000000000000000000000000000000000000000000000600052603260045260246000fd5b7f4552433732313a206d696e7420746f20746865207a65726f2061646472657373600082015250565b6000612e80602083611ddc565b9150612e8b82612e4a565b602082019050919050565b60006020820190508181036000830152612eaf81612e73565b9050919050565b7f4552433732313a20746f6b656e20616c7265616479206d696e74656400000000600082015250565b6000612eec601c83611ddc565b9150612ef782612eb6565b602082019050919050565b60006020820190508181036000830152612f1b81612edf565b905091905056fe416e204e465420772f20494420257320686173206265656e206d696e74656420746f202573a2646970667358221220c1f9fd7ac419614876dd477320e916cb561180c46f45a2e2ac58fbce17aa5b8e64736f6c63430008090033",
  "linkReferences": {},
  "deployedLinkReferences": {}
}