{
    "_format": "hh-sol-artifact-1",
    "contractName": "tgNFT",
    "sourceName": "contracts/tgNFT.sol",
    "abi": [
        {
            "inputs": [],
            "stateMutability": "nonpayable",
            "type": "constructor"
        },
        {
            "anonymous": false,
            "inputs": [
                {
                    "indexed": true,
                    "internalType": "address",
                    "name": "owner",
                    "type": "address"
                },
                {
                    "indexed": true,
                    "internalType": "address",
                    "name": "approved",
                    "type": "address"
                },
                {
                    "indexed": true,
                    "internalType": "uint256",
                    "name": "tokenId",
                    "type": "uint256"
                }
            ],
            "name": "Approval",
            "type": "event"
        },
        {
            "anonymous": false,
            "inputs": [
                {
                    "indexed": true,
                    "internalType": "address",
                    "name": "owner",
                    "type": "address"
                },
                {
                    "indexed": true,
                    "internalType": "address",
                    "name": "operator",
                    "type": "address"
                },
                {
                    "indexed": false,
                    "internalType": "bool",
                    "name": "approved",
                    "type": "bool"
                }
            ],
            "name": "ApprovalForAll",
            "type": "event"
        },
        {
            "anonymous": false,
            "inputs": [
                {
                    "indexed": false,
                    "internalType": "address",
                    "name": "sender",
                    "type": "address"
                },
                {
                    "indexed": false,
                    "internalType": "uint256",
                    "name": "tokenId",
                    "type": "uint256"
                }
            ],
            "name": "NewEpicNFTMinted",
            "type": "event"
        },
        {
            "anonymous": false,
            "inputs": [
                {
                    "indexed": true,
                    "internalType": "address",
                    "name": "from",
                    "type": "address"
                },
                {
                    "indexed": true,
                    "internalType": "address",
                    "name": "to",
                    "type": "address"
                },
                {
                    "indexed": true,
                    "internalType": "uint256",
                    "name": "tokenId",
                    "type": "uint256"
                }
            ],
            "name": "Transfer",
            "type": "event"
        },
        {
            "inputs": [],
            "name": "NFT_AMOUNT",
            "outputs": [
                {
                    "internalType": "uint256",
                    "name": "",
                    "type": "uint256"
                }
            ],
            "stateMutability": "view",
            "type": "function"
        },
        {
            "inputs": [
                {
                    "internalType": "address",
                    "name": "to",
                    "type": "address"
                },
                {
                    "internalType": "uint256",
                    "name": "tokenId",
                    "type": "uint256"
                }
            ],
            "name": "approve",
            "outputs": [],
            "stateMutability": "nonpayable",
            "type": "function"
        },
        {
            "inputs": [
                {
                    "internalType": "address",
                    "name": "owner",
                    "type": "address"
                }
            ],
            "name": "balanceOf",
            "outputs": [
                {
                    "internalType": "uint256",
                    "name": "",
                    "type": "uint256"
                }
            ],
            "stateMutability": "view",
            "type": "function"
        },
        {
            "inputs": [
                {
                    "internalType": "uint256",
                    "name": "tokenId",
                    "type": "uint256"
                }
            ],
            "name": "getApproved",
            "outputs": [
                {
                    "internalType": "address",
                    "name": "",
                    "type": "address"
                }
            ],
            "stateMutability": "view",
            "type": "function"
        },
        {
            "inputs": [],
            "name": "getTotalMintedNFTUrls",
            "outputs": [
                {
                    "internalType": "string[]",
                    "name": "",
                    "type": "string[]"
                }
            ],
            "stateMutability": "view",
            "type": "function"
        },
        {
            "inputs": [],
            "name": "getTotalNFTsMintedSoFar",
            "outputs": [
                {
                    "internalType": "uint256",
                    "name": "",
                    "type": "uint256"
                }
            ],
            "stateMutability": "view",
            "type": "function"
        },
        {
            "inputs": [
                {
                    "internalType": "address",
                    "name": "owner",
                    "type": "address"
                },
                {
                    "internalType": "address",
                    "name": "operator",
                    "type": "address"
                }
            ],
            "name": "isApprovedForAll",
            "outputs": [
                {
                    "internalType": "bool",
                    "name": "",
                    "type": "bool"
                }
            ],
            "stateMutability": "view",
            "type": "function"
        },
        {
            "inputs": [
                {
                    "internalType": "string",
                    "name": "_uri",
                    "type": "string"
                }
            ],
            "name": "makeAnEpicNFT",
            "outputs": [],
            "stateMutability": "nonpayable",
            "type": "function"
        },
        {
            "inputs": [],
            "name": "mintedNFT",
            "outputs": [
                {
                    "internalType": "uint256",
                    "name": "",
                    "type": "uint256"
                }
            ],
            "stateMutability": "view",
            "type": "function"
        },
        {
            "inputs": [
                {
                    "internalType": "uint256",
                    "name": "",
                    "type": "uint256"
                }
            ],
            "name": "mintedNFTurls",
            "outputs": [
                {
                    "internalType": "string",
                    "name": "",
                    "type": "string"
                }
            ],
            "stateMutability": "view",
            "type": "function"
        },
        {
            "inputs": [],
            "name": "name",
            "outputs": [
                {
                    "internalType": "string",
                    "name": "",
                    "type": "string"
                }
            ],
            "stateMutability": "view",
            "type": "function"
        },
        {
            "inputs": [
                {
                    "internalType": "uint256",
                    "name": "tokenId",
                    "type": "uint256"
                }
            ],
            "name": "ownerOf",
            "outputs": [
                {
                    "internalType": "address",
                    "name": "",
                    "type": "address"
                }
            ],
            "stateMutability": "view",
            "type": "function"
        },
        {
            "inputs": [
                {
                    "internalType": "address",
                    "name": "from",
                    "type": "address"
                },
                {
                    "internalType": "address",
                    "name": "to",
                    "type": "address"
                },
                {
                    "internalType": "uint256",
                    "name": "tokenId",
                    "type": "uint256"
                }
            ],
            "name": "safeTransferFrom",
            "outputs": [],
            "stateMutability": "nonpayable",
            "type": "function"
        },
        {
            "inputs": [
                {
                    "internalType": "address",
                    "name": "from",
                    "type": "address"
                },
                {
                    "internalType": "address",
                    "name": "to",
                    "type": "address"
                },
                {
                    "internalType": "uint256",
                    "name": "tokenId",
                    "type": "uint256"
                },
                {
                    "internalType": "bytes",
                    "name": "data",
                    "type": "bytes"
                }
            ],
            "name": "safeTransferFrom",
            "outputs": [],
            "stateMutability": "nonpayable",
            "type": "function"
        },
        {
            "inputs": [
                {
                    "internalType": "address",
                    "name": "operator",
                    "type": "address"
                },
                {
                    "internalType": "bool",
                    "name": "approved",
                    "type": "bool"
                }
            ],
            "name": "setApprovalForAll",
            "outputs": [],
            "stateMutability": "nonpayable",
            "type": "function"
        },
        {
            "inputs": [
                {
                    "internalType": "bytes4",
                    "name": "interfaceId",
                    "type": "bytes4"
                }
            ],
            "name": "supportsInterface",
            "outputs": [
                {
                    "internalType": "bool",
                    "name": "",
                    "type": "bool"
                }
            ],
            "stateMutability": "view",
            "type": "function"
        },
        {
            "inputs": [],
            "name": "symbol",
            "outputs": [
                {
                    "internalType": "string",
                    "name": "",
                    "type": "string"
                }
            ],
            "stateMutability": "view",
            "type": "function"
        },
        {
            "inputs": [
                {
                    "internalType": "uint256",
                    "name": "tokenId",
                    "type": "uint256"
                }
            ],
            "name": "tokenURI",
            "outputs": [
                {
                    "internalType": "string",
                    "name": "",
                    "type": "string"
                }
            ],
            "stateMutability": "view",
            "type": "function"
        },
        {
            "inputs": [
                {
                    "internalType": "address",
                    "name": "from",
                    "type": "address"
                },
                {
                    "internalType": "address",
                    "name": "to",
                    "type": "address"
                },
                {
                    "internalType": "uint256",
                    "name": "tokenId",
                    "type": "uint256"
                }
            ],
            "name": "transferFrom",
            "outputs": [],
            "stateMutability": "nonpayable",
            "type": "function"
        }
    ],
    "bytecode": "0x60806040523480156200001157600080fd5b506040518060400160405280600b81526020017f5479706572476f644e46540000000000000000000000000000000000000000008152506040518060400160405280600381526020017f54474e0000000000000000000000000000000000000000000000000000000000815250816000908051906020019062000096929190620001cf565b508060019080519060200190620000af929190620001cf565b505050620000fd6040518060400160405280601e81526020017f54686973206973206d79204e465420636f6e74726163742e20576f61682100008152506200010360201b62000e011760201c565b620003ac565b620001a3816040516024016200011a919062000323565b6040516020818303038152906040527f41304fac000000000000000000000000000000000000000000000000000000007bffffffffffffffffffffffffffffffffffffffffffffffffffffffff19166020820180517bffffffffffffffffffffffffffffffffffffffffffffffffffffffff8381831617835250505050620001a660201b60201c565b50565b60008151905060006a636f6e736f6c652e6c6f679050602083016000808483855afa5050505050565b828054620001dd9062000376565b90600052602060002090601f0160209004810192826200020157600085556200024d565b82601f106200021c57805160ff19168380011785556200024d565b828001600101855582156200024d579182015b828111156200024c5782518255916020019190600101906200022f565b5b5090506200025c919062000260565b5090565b5b808211156200027b57600081600090555060010162000261565b5090565b600081519050919050565b600082825260208201905092915050565b60005b83811015620002bb5780820151818401526020810190506200029e565b83811115620002cb576000848401525b50505050565b6000601f19601f8301169050919050565b6000620002ef826200027f565b620002fb81856200028a565b93506200030d8185602086016200029b565b6200031881620002d1565b840191505092915050565b600060208201905081810360008301526200033f8184620002e2565b905092915050565b7f4e487b7100000000000000000000000000000000000000000000000000000000600052602260045260246000fd5b600060028204905060018216806200038f57607f821691505b60208210811415620003a657620003a562000347565b5b50919050565b612fea80620003bc6000396000f3fe608060405234801561001057600080fd5b50600436106101215760003560e01c80636f0b7871116100ad578063b88d4fde11610071578063b88d4fde14610308578063c87b56dd14610324578063d4bde9c214610354578063e985e9c514610384578063f18785a8146103b457610121565b80636f0b7871146102625780636f0c389e1461028057806370a082311461029e57806395d89b41146102ce578063a22cb465146102ec57610121565b8063095ea7b3116100f4578063095ea7b3146101c257806323b872dd146101de57806339fa8daf146101fa57806342842e0e146102165780636352211e1461023257610121565b806301ffc9a714610126578063060475901461015657806306fdde0314610174578063081812fc14610192575b600080fd5b610140600480360381019061013b9190611da7565b6103d2565b60405161014d9190611def565b60405180910390f35b61015e6104b4565b60405161016b9190611e23565b60405180910390f35b61017c6104be565b6040516101899190611ed7565b60405180910390f35b6101ac60048036038101906101a79190611f25565b610550565b6040516101b99190611f93565b60405180910390f35b6101dc60048036038101906101d79190611fda565b610596565b005b6101f860048036038101906101f3919061201a565b6106ae565b005b610214600480360381019061020f91906121a2565b61070e565b005b610230600480360381019061022b919061201a565b610836565b005b61024c60048036038101906102479190611f25565b610856565b6040516102599190611f93565b60405180910390f35b61026a610908565b6040516102779190611e23565b60405180910390f35b61028861090e565b60405161029591906122f7565b60405180910390f35b6102b860048036038101906102b39190612319565b6109e7565b6040516102c59190611e23565b60405180910390f35b6102d6610a9f565b6040516102e39190611ed7565b60405180910390f35b61030660048036038101906103019190612372565b610b31565b005b610322600480360381019061031d9190612453565b610b47565b005b61033e60048036038101906103399190611f25565b610ba9565b60405161034b9190611ed7565b60405180910390f35b61036e60048036038101906103699190611f25565b610cbc565b60405161037b9190611ed7565b60405180910390f35b61039e600480360381019061039991906124d6565b610d68565b6040516103ab9190611def565b60405180910390f35b6103bc610dfc565b6040516103c99190611e23565b60405180910390f35b60007f80ac58cd000000000000000000000000000000000000000000000000000000007bffffffffffffffffffffffffffffffffffffffffffffffffffffffff1916827bffffffffffffffffffffffffffffffffffffffffffffffffffffffff1916148061049d57507f5b5e139f000000000000000000000000000000000000000000000000000000007bffffffffffffffffffffffffffffffffffffffffffffffffffffffff1916827bffffffffffffffffffffffffffffffffffffffffffffffffffffffff1916145b806104ad57506104ac82610e9a565b5b9050919050565b6000600854905090565b6060600080546104cd90612545565b80601f01602080910402602001604051908101604052809291908181526020018280546104f990612545565b80156105465780601f1061051b57610100808354040283529160200191610546565b820191906000526020600020905b81548152906001019060200180831161052957829003601f168201915b5050505050905090565b600061055b82610f04565b6004600083815260200190815260200160002060009054906101000a900473ffffffffffffffffffffffffffffffffffffffff169050919050565b60006105a182610856565b90508073ffffffffffffffffffffffffffffffffffffffff168373ffffffffffffffffffffffffffffffffffffffff161415610612576040517f08c379a0000000000000000000000000000000000000000000000000000000008152600401610609906125e9565b60405180910390fd5b8073ffffffffffffffffffffffffffffffffffffffff16610631610f4f565b73ffffffffffffffffffffffffffffffffffffffff161480610660575061065f8161065a610f4f565b610d68565b5b61069f576040517f08c379a00000000000000000000000000000000000000000000000000000000081526004016106969061267b565b60405180910390fd5b6106a98383610f57565b505050565b6106bf6106b9610f4f565b82611010565b6106fe576040517f08c379a00000000000000000000000000000000000000000000000000000000081526004016106f59061270d565b60405180910390fd5b6107098383836110a5565b505050565b600061071a600761130c565b905060016008600082825461072f919061275c565b925050819055506064600854111561077c576040517f08c379a0000000000000000000000000000000000000000000000000000000008152600401610773906127fe565b60405180910390fd5b610786338261131a565b6107908183611338565b6009829080600181540180825580915050600190039060005260206000200160009091909190915090805190602001906107cb929190611c98565b506107ef604051806060016040528060258152602001612f906025913982336113ac565b6107f9600761144b565b7febb98688741ffa4c7589bf325de30cf7becb63de567842e1ccdb6cb949fdc82c338260405161082a92919061281e565b60405180910390a15050565b61085183838360405180602001604052806000815250610b47565b505050565b6000806002600084815260200190815260200160002060009054906101000a900473ffffffffffffffffffffffffffffffffffffffff169050600073ffffffffffffffffffffffffffffffffffffffff168173ffffffffffffffffffffffffffffffffffffffff1614156108ff576040517f08c379a00000000000000000000000000000000000000000000000000000000081526004016108f690612893565b60405180910390fd5b80915050919050565b60085481565b60606009805480602002602001604051908101604052809291908181526020016000905b828210156109de57838290600052602060002001805461095190612545565b80601f016020809104026020016040519081016040528092919081815260200182805461097d90612545565b80156109ca5780601f1061099f576101008083540402835291602001916109ca565b820191906000526020600020905b8154815290600101906020018083116109ad57829003601f168201915b505050505081526020019060010190610932565b50505050905090565b60008073ffffffffffffffffffffffffffffffffffffffff168273ffffffffffffffffffffffffffffffffffffffff161415610a58576040517f08c379a0000000000000000000000000000000000000000000000000000000008152600401610a4f90612925565b60405180910390fd5b600360008373ffffffffffffffffffffffffffffffffffffffff1673ffffffffffffffffffffffffffffffffffffffff168152602001908152602001600020549050919050565b606060018054610aae90612545565b80601f0160208091040260200160405190810160405280929190818152602001828054610ada90612545565b8015610b275780601f10610afc57610100808354040283529160200191610b27565b820191906000526020600020905b815481529060010190602001808311610b0a57829003601f168201915b5050505050905090565b610b43610b3c610f4f565b8383611461565b5050565b610b58610b52610f4f565b83611010565b610b97576040517f08c379a0000000000000000000000000000000000000000000000000000000008152600401610b8e9061270d565b60405180910390fd5b610ba3848484846115ce565b50505050565b6060610bb482610f04565b6000600660008481526020019081526020016000208054610bd490612545565b80601f0160208091040260200160405190810160405280929190818152602001828054610c0090612545565b8015610c4d5780601f10610c2257610100808354040283529160200191610c4d565b820191906000526020600020905b815481529060010190602001808311610c3057829003601f168201915b505050505090506000610c5e61162a565b9050600081511415610c74578192505050610cb7565b600082511115610ca9578082604051602001610c91929190612981565b60405160208183030381529060405292505050610cb7565b610cb284611641565b925050505b919050565b60098181548110610ccc57600080fd5b906000526020600020016000915090508054610ce790612545565b80601f0160208091040260200160405190810160405280929190818152602001828054610d1390612545565b8015610d605780601f10610d3557610100808354040283529160200191610d60565b820191906000526020600020905b815481529060010190602001808311610d4357829003601f168201915b505050505081565b6000600560008473ffffffffffffffffffffffffffffffffffffffff1673ffffffffffffffffffffffffffffffffffffffff16815260200190815260200160002060008373ffffffffffffffffffffffffffffffffffffffff1673ffffffffffffffffffffffffffffffffffffffff16815260200190815260200160002060009054906101000a900460ff16905092915050565b606481565b610e9781604051602401610e159190611ed7565b6040516020818303038152906040527f41304fac000000000000000000000000000000000000000000000000000000007bffffffffffffffffffffffffffffffffffffffffffffffffffffffff19166020820180517bffffffffffffffffffffffffffffffffffffffffffffffffffffffff83818316178352505050506116a9565b50565b60007f01ffc9a7000000000000000000000000000000000000000000000000000000007bffffffffffffffffffffffffffffffffffffffffffffffffffffffff1916827bffffffffffffffffffffffffffffffffffffffffffffffffffffffff1916149050919050565b610f0d816116d2565b610f4c576040517f08c379a0000000000000000000000000000000000000000000000000000000008152600401610f4390612893565b60405180910390fd5b50565b600033905090565b816004600083815260200190815260200160002060006101000a81548173ffffffffffffffffffffffffffffffffffffffff021916908373ffffffffffffffffffffffffffffffffffffffff160217905550808273ffffffffffffffffffffffffffffffffffffffff16610fca83610856565b73ffffffffffffffffffffffffffffffffffffffff167f8c5be1e5ebec7d5bd14f71427d1e84f3dd0314c0f7b2291e5b200ac8c7c3b92560405160405180910390a45050565b60008061101c83610856565b90508073ffffffffffffffffffffffffffffffffffffffff168473ffffffffffffffffffffffffffffffffffffffff16148061105e575061105d8185610d68565b5b8061109c57508373ffffffffffffffffffffffffffffffffffffffff1661108484610550565b73ffffffffffffffffffffffffffffffffffffffff16145b91505092915050565b8273ffffffffffffffffffffffffffffffffffffffff166110c582610856565b73ffffffffffffffffffffffffffffffffffffffff161461111b576040517f08c379a000000000000000000000000000000000000000000000000000000000815260040161111290612a17565b60405180910390fd5b600073ffffffffffffffffffffffffffffffffffffffff168273ffffffffffffffffffffffffffffffffffffffff16141561118b576040517f08c379a000000000000000000000000000000000000000000000000000000000815260040161118290612aa9565b60405180910390fd5b61119683838361173e565b6111a1600082610f57565b6001600360008573ffffffffffffffffffffffffffffffffffffffff1673ffffffffffffffffffffffffffffffffffffffff16815260200190815260200160002060008282546111f19190612ac9565b925050819055506001600360008473ffffffffffffffffffffffffffffffffffffffff1673ffffffffffffffffffffffffffffffffffffffff1681526020019081526020016000206000828254611248919061275c565b92505081905550816002600083815260200190815260200160002060006101000a81548173ffffffffffffffffffffffffffffffffffffffff021916908373ffffffffffffffffffffffffffffffffffffffff160217905550808273ffffffffffffffffffffffffffffffffffffffff168473ffffffffffffffffffffffffffffffffffffffff167fddf252ad1be2c89b69c2b068fc378daa952ba7f163c4a11628f55a4df523b3ef60405160405180910390a4611307838383611743565b505050565b600081600001549050919050565b611334828260405180602001604052806000815250611748565b5050565b611341826116d2565b611380576040517f08c379a000000000000000000000000000000000000000000000000000000000815260040161137790612b6f565b60405180910390fd5b806006600084815260200190815260200160002090805190602001906113a7929190611c98565b505050565b6114468383836040516024016113c493929190612b8f565b6040516020818303038152906040527fe3849f79000000000000000000000000000000000000000000000000000000007bffffffffffffffffffffffffffffffffffffffffffffffffffffffff19166020820180517bffffffffffffffffffffffffffffffffffffffffffffffffffffffff83818316178352505050506116a9565b505050565b6001816000016000828254019250508190555050565b8173ffffffffffffffffffffffffffffffffffffffff168373ffffffffffffffffffffffffffffffffffffffff1614156114d0576040517f08c379a00000000000000000000000000000000000000000000000000000000081526004016114c790612c19565b60405180910390fd5b80600560008573ffffffffffffffffffffffffffffffffffffffff1673ffffffffffffffffffffffffffffffffffffffff16815260200190815260200160002060008473ffffffffffffffffffffffffffffffffffffffff1673ffffffffffffffffffffffffffffffffffffffff16815260200190815260200160002060006101000a81548160ff0219169083151502179055508173ffffffffffffffffffffffffffffffffffffffff168373ffffffffffffffffffffffffffffffffffffffff167f17307eab39ab6107e8899845ad3d59bd9653f200f220920489ca2b5937696c31836040516115c19190611def565b60405180910390a3505050565b6115d98484846110a5565b6115e5848484846117a3565b611624576040517f08c379a000000000000000000000000000000000000000000000000000000000815260040161161b90612cab565b60405180910390fd5b50505050565b606060405180602001604052806000815250905090565b606061164c82610f04565b600061165661162a565b9050600081511161167657604051806020016040528060008152506116a1565b806116808461193a565b604051602001611691929190612981565b6040516020818303038152906040525b915050919050565b60008151905060006a636f6e736f6c652e6c6f679050602083016000808483855afa5050505050565b60008073ffffffffffffffffffffffffffffffffffffffff166002600084815260200190815260200160002060009054906101000a900473ffffffffffffffffffffffffffffffffffffffff1673ffffffffffffffffffffffffffffffffffffffff1614159050919050565b505050565b505050565b6117528383611a9b565b61175f60008484846117a3565b61179e576040517f08c379a000000000000000000000000000000000000000000000000000000000815260040161179590612cab565b60405180910390fd5b505050565b60006117c48473ffffffffffffffffffffffffffffffffffffffff16611c75565b1561192d578373ffffffffffffffffffffffffffffffffffffffff1663150b7a026117ed610f4f565b8786866040518563ffffffff1660e01b815260040161180f9493929190612d20565b602060405180830381600087803b15801561182957600080fd5b505af192505050801561185a57506040513d601f19601f820116820180604052508101906118579190612d81565b60015b6118dd573d806000811461188a576040519150601f19603f3d011682016040523d82523d6000602084013e61188f565b606091505b506000815114156118d5576040517f08c379a00000000000000000000000000000000000000000000000000000000081526004016118cc90612cab565b60405180910390fd5b805181602001fd5b63150b7a0260e01b7bffffffffffffffffffffffffffffffffffffffffffffffffffffffff1916817bffffffffffffffffffffffffffffffffffffffffffffffffffffffff191614915050611932565b600190505b949350505050565b60606000821415611982576040518060400160405280600181526020017f30000000000000000000000000000000000000000000000000000000000000008152509050611a96565b600082905060005b600082146119b457808061199d90612dae565b915050600a826119ad9190612e26565b915061198a565b60008167ffffffffffffffff8111156119d0576119cf612077565b5b6040519080825280601f01601f191660200182016040528015611a025781602001600182028036833780820191505090505b5090505b60008514611a8f57600182611a1b9190612ac9565b9150600a85611a2a9190612e57565b6030611a36919061275c565b60f81b818381518110611a4c57611a4b612e88565b5b60200101907effffffffffffffffffffffffffffffffffffffffffffffffffffffffffffff1916908160001a905350600a85611a889190612e26565b9450611a06565b8093505050505b919050565b600073ffffffffffffffffffffffffffffffffffffffff168273ffffffffffffffffffffffffffffffffffffffff161415611b0b576040517f08c379a0000000000000000000000000000000000000000000000000000000008152600401611b0290612f03565b60405180910390fd5b611b14816116d2565b15611b54576040517f08c379a0000000000000000000000000000000000000000000000000000000008152600401611b4b90612f6f565b60405180910390fd5b611b606000838361173e565b6001600360008473ffffffffffffffffffffffffffffffffffffffff1673ffffffffffffffffffffffffffffffffffffffff1681526020019081526020016000206000828254611bb0919061275c565b92505081905550816002600083815260200190815260200160002060006101000a81548173ffffffffffffffffffffffffffffffffffffffff021916908373ffffffffffffffffffffffffffffffffffffffff160217905550808273ffffffffffffffffffffffffffffffffffffffff16600073ffffffffffffffffffffffffffffffffffffffff167fddf252ad1be2c89b69c2b068fc378daa952ba7f163c4a11628f55a4df523b3ef60405160405180910390a4611c7160008383611743565b5050565b6000808273ffffffffffffffffffffffffffffffffffffffff163b119050919050565b828054611ca490612545565b90600052602060002090601f016020900481019282611cc65760008555611d0d565b82601f10611cdf57805160ff1916838001178555611d0d565b82800160010185558215611d0d579182015b82811115611d0c578251825591602001919060010190611cf1565b5b509050611d1a9190611d1e565b5090565b5b80821115611d37576000816000905550600101611d1f565b5090565b6000604051905090565b600080fd5b600080fd5b60007fffffffff0000000000000000000000000000000000000000000000000000000082169050919050565b611d8481611d4f565b8114611d8f57600080fd5b50565b600081359050611da181611d7b565b92915050565b600060208284031215611dbd57611dbc611d45565b5b6000611dcb84828501611d92565b91505092915050565b60008115159050919050565b611de981611dd4565b82525050565b6000602082019050611e046000830184611de0565b92915050565b6000819050919050565b611e1d81611e0a565b82525050565b6000602082019050611e386000830184611e14565b92915050565b600081519050919050565b600082825260208201905092915050565b60005b83811015611e78578082015181840152602081019050611e5d565b83811115611e87576000848401525b50505050565b6000601f19601f8301169050919050565b6000611ea982611e3e565b611eb38185611e49565b9350611ec3818560208601611e5a565b611ecc81611e8d565b840191505092915050565b60006020820190508181036000830152611ef18184611e9e565b905092915050565b611f0281611e0a565b8114611f0d57600080fd5b50565b600081359050611f1f81611ef9565b92915050565b600060208284031215611f3b57611f3a611d45565b5b6000611f4984828501611f10565b91505092915050565b600073ffffffffffffffffffffffffffffffffffffffff82169050919050565b6000611f7d82611f52565b9050919050565b611f8d81611f72565b82525050565b6000602082019050611fa86000830184611f84565b92915050565b611fb781611f72565b8114611fc257600080fd5b50565b600081359050611fd481611fae565b92915050565b60008060408385031215611ff157611ff0611d45565b5b6000611fff85828601611fc5565b925050602061201085828601611f10565b9150509250929050565b60008060006060848603121561203357612032611d45565b5b600061204186828701611fc5565b935050602061205286828701611fc5565b925050604061206386828701611f10565b9150509250925092565b600080fd5b600080fd5b7f4e487b7100000000000000000000000000000000000000000000000000000000600052604160045260246000fd5b6120af82611e8d565b810181811067ffffffffffffffff821117156120ce576120cd612077565b5b80604052505050565b60006120e1611d3b565b90506120ed82826120a6565b919050565b600067ffffffffffffffff82111561210d5761210c612077565b5b61211682611e8d565b9050602081019050919050565b82818337600083830152505050565b6000612145612140846120f2565b6120d7565b90508281526020810184848401111561216157612160612072565b5b61216c848285612123565b509392505050565b600082601f8301126121895761218861206d565b5b8135612199848260208601612132565b91505092915050565b6000602082840312156121b8576121b7611d45565b5b600082013567ffffffffffffffff8111156121d6576121d5611d4a565b5b6121e284828501612174565b91505092915050565b600081519050919050565b600082825260208201905092915050565b6000819050602082019050919050565b600082825260208201905092915050565b600061223382611e3e565b61223d8185612217565b935061224d818560208601611e5a565b61225681611e8d565b840191505092915050565b600061226d8383612228565b905092915050565b6000602082019050919050565b600061228d826121eb565b61229781856121f6565b9350836020820285016122a985612207565b8060005b858110156122e557848403895281516122c68582612261565b94506122d183612275565b925060208a019950506001810190506122ad565b50829750879550505050505092915050565b600060208201905081810360008301526123118184612282565b905092915050565b60006020828403121561232f5761232e611d45565b5b600061233d84828501611fc5565b91505092915050565b61234f81611dd4565b811461235a57600080fd5b50565b60008135905061236c81612346565b92915050565b6000806040838503121561238957612388611d45565b5b600061239785828601611fc5565b92505060206123a88582860161235d565b9150509250929050565b600067ffffffffffffffff8211156123cd576123cc612077565b5b6123d682611e8d565b9050602081019050919050565b60006123f66123f1846123b2565b6120d7565b90508281526020810184848401111561241257612411612072565b5b61241d848285612123565b509392505050565b600082601f83011261243a5761243961206d565b5b813561244a8482602086016123e3565b91505092915050565b6000806000806080858703121561246d5761246c611d45565b5b600061247b87828801611fc5565b945050602061248c87828801611fc5565b935050604061249d87828801611f10565b925050606085013567ffffffffffffffff8111156124be576124bd611d4a565b5b6124ca87828801612425565b91505092959194509250565b600080604083850312156124ed576124ec611d45565b5b60006124fb85828601611fc5565b925050602061250c85828601611fc5565b9150509250929050565b7f4e487b7100000000000000000000000000000000000000000000000000000000600052602260045260246000fd5b6000600282049050600182168061255d57607f821691505b6020821081141561257157612570612516565b5b50919050565b7f4552433732313a20617070726f76616c20746f2063757272656e74206f776e6560008201527f7200000000000000000000000000000000000000000000000000000000000000602082015250565b60006125d3602183611e49565b91506125de82612577565b604082019050919050565b60006020820190508181036000830152612602816125c6565b9050919050565b7f4552433732313a20617070726f76652063616c6c6572206973206e6f7420746f60008201527f6b656e206f776e6572206e6f7220617070726f76656420666f7220616c6c0000602082015250565b6000612665603e83611e49565b915061267082612609565b604082019050919050565b6000602082019050818103600083015261269481612658565b9050919050565b7f4552433732313a2063616c6c6572206973206e6f7420746f6b656e206f776e6560008201527f72206e6f7220617070726f766564000000000000000000000000000000000000602082015250565b60006126f7602e83611e49565b91506127028261269b565b604082019050919050565b60006020820190508181036000830152612726816126ea565b9050919050565b7f4e487b7100000000000000000000000000000000000000000000000000000000600052601160045260246000fd5b600061276782611e0a565b915061277283611e0a565b9250827fffffffffffffffffffffffffffffffffffffffffffffffffffffffffffffffff038211156127a7576127a661272d565b5b828201905092915050565b7f494e56414c49445f4e46545f494e444558000000000000000000000000000000600082015250565b60006127e8601183611e49565b91506127f3826127b2565b602082019050919050565b60006020820190508181036000830152612817816127db565b9050919050565b60006040820190506128336000830185611f84565b6128406020830184611e14565b9392505050565b7f4552433732313a20696e76616c696420746f6b656e2049440000000000000000600082015250565b600061287d601883611e49565b915061288882612847565b602082019050919050565b600060208201905081810360008301526128ac81612870565b9050919050565b7f4552433732313a2061646472657373207a65726f206973206e6f74206120766160008201527f6c6964206f776e65720000000000000000000000000000000000000000000000602082015250565b600061290f602983611e49565b915061291a826128b3565b604082019050919050565b6000602082019050818103600083015261293e81612902565b9050919050565b600081905092915050565b600061295b82611e3e565b6129658185612945565b9350612975818560208601611e5a565b80840191505092915050565b600061298d8285612950565b91506129998284612950565b91508190509392505050565b7f4552433732313a207472616e736665722066726f6d20696e636f72726563742060008201527f6f776e6572000000000000000000000000000000000000000000000000000000602082015250565b6000612a01602583611e49565b9150612a0c826129a5565b604082019050919050565b60006020820190508181036000830152612a30816129f4565b9050919050565b7f4552433732313a207472616e7366657220746f20746865207a65726f2061646460008201527f7265737300000000000000000000000000000000000000000000000000000000602082015250565b6000612a93602483611e49565b9150612a9e82612a37565b604082019050919050565b60006020820190508181036000830152612ac281612a86565b9050919050565b6000612ad482611e0a565b9150612adf83611e0a565b925082821015612af257612af161272d565b5b828203905092915050565b7f45524337323155524953746f726167653a2055524920736574206f66206e6f6e60008201527f6578697374656e7420746f6b656e000000000000000000000000000000000000602082015250565b6000612b59602e83611e49565b9150612b6482612afd565b604082019050919050565b60006020820190508181036000830152612b8881612b4c565b9050919050565b60006060820190508181036000830152612ba98186611e9e565b9050612bb86020830185611e14565b612bc56040830184611f84565b949350505050565b7f4552433732313a20617070726f766520746f2063616c6c657200000000000000600082015250565b6000612c03601983611e49565b9150612c0e82612bcd565b602082019050919050565b60006020820190508181036000830152612c3281612bf6565b9050919050565b7f4552433732313a207472616e7366657220746f206e6f6e20455243373231526560008201527f63656976657220696d706c656d656e7465720000000000000000000000000000602082015250565b6000612c95603283611e49565b9150612ca082612c39565b604082019050919050565b60006020820190508181036000830152612cc481612c88565b9050919050565b600081519050919050565b600082825260208201905092915050565b6000612cf282612ccb565b612cfc8185612cd6565b9350612d0c818560208601611e5a565b612d1581611e8d565b840191505092915050565b6000608082019050612d356000830187611f84565b612d426020830186611f84565b612d4f6040830185611e14565b8181036060830152612d618184612ce7565b905095945050505050565b600081519050612d7b81611d7b565b92915050565b600060208284031215612d9757612d96611d45565b5b6000612da584828501612d6c565b91505092915050565b6000612db982611e0a565b91507fffffffffffffffffffffffffffffffffffffffffffffffffffffffffffffffff821415612dec57612deb61272d565b5b600182019050919050565b7f4e487b7100000000000000000000000000000000000000000000000000000000600052601260045260246000fd5b6000612e3182611e0a565b9150612e3c83611e0a565b925082612e4c57612e4b612df7565b5b828204905092915050565b6000612e6282611e0a565b9150612e6d83611e0a565b925082612e7d57612e7c612df7565b5b828206905092915050565b7f4e487b7100000000000000000000000000000000000000000000000000000000600052603260045260246000fd5b7f4552433732313a206d696e7420746f20746865207a65726f2061646472657373600082015250565b6000612eed602083611e49565b9150612ef882612eb7565b602082019050919050565b60006020820190508181036000830152612f1c81612ee0565b9050919050565b7f4552433732313a20746f6b656e20616c7265616479206d696e74656400000000600082015250565b6000612f59601c83611e49565b9150612f6482612f23565b602082019050919050565b60006020820190508181036000830152612f8881612f4c565b905091905056fe416e204e465420772f20494420257320686173206265656e206d696e74656420746f202573a2646970667358221220c1e5359a5a76af7f2e6ce7b740e3d3a88c4fbb21f55b4218c06252724c62b83c64736f6c63430008090033",
    "linkReferences": {},
    "deployedLinkReferences": {}
}