{
    "_format": "hh-sol-artifact-1",
    "contractName": "TyperGod",
    "sourceName": "contracts/TyperGod.sol",
    "abi": [
        {
            "inputs": [],
            "stateMutability": "payable",
            "type": "constructor"
        },
        {
            "anonymous": false,
            "inputs": [
                {
                    "indexed": true,
                    "internalType": "address",
                    "name": "from",
                    "type": "address"
                },
                {
                    "indexed": false,
                    "internalType": "uint256",
                    "name": "tokens",
                    "type": "uint256"
                }
            ],
            "name": "NewSend",
            "type": "event"
        },
        {
            "inputs": [],
            "name": "getLeadersByCoins",
            "outputs": [
                {
                    "components": [
                        {
                            "internalType": "address",
                            "name": "user",
                            "type": "address"
                        },
                        {
                            "internalType": "uint256",
                            "name": "tokens",
                            "type": "uint256"
                        }
                    ],
                    "internalType": "struct TyperGod.User[]",
                    "name": "",
                    "type": "tuple[]"
                }
            ],
            "stateMutability": "view",
            "type": "function"
        },
        {
            "inputs": [],
            "name": "getTokens",
            "outputs": [
                {
                    "internalType": "uint256",
                    "name": "",
                    "type": "uint256"
                }
            ],
            "stateMutability": "view",
            "type": "function"
        },
        {
            "inputs": [
                {
                    "internalType": "address",
                    "name": "",
                    "type": "address"
                }
            ],
            "name": "leadersByTokens",
            "outputs": [
                {
                    "internalType": "uint256",
                    "name": "",
                    "type": "uint256"
                }
            ],
            "stateMutability": "view",
            "type": "function"
        },
        {
            "inputs": [
                {
                    "internalType": "uint256",
                    "name": "_tokens",
                    "type": "uint256"
                }
            ],
            "name": "sendTokens",
            "outputs": [],
            "stateMutability": "nonpayable",
            "type": "function"
        },
        {
            "inputs": [
                {
                    "internalType": "uint256",
                    "name": "_tokens",
                    "type": "uint256"
                }
            ],
            "name": "substractTokens",
            "outputs": [],
            "stateMutability": "nonpayable",
            "type": "function"
        }
    ],
    "bytecode": "0x608060405261004c6040518060400160405280601181526020017f576527766520636f6e737472756374656400000000000000000000000000000081525061005160201b6106241760201c565b6101d4565b6100ed816040516024016100659190610152565b6040516020818303038152906040527f41304fac000000000000000000000000000000000000000000000000000000007bffffffffffffffffffffffffffffffffffffffffffffffffffffffff19166020820180517bffffffffffffffffffffffffffffffffffffffffffffffffffffffff83818316178352505050506100f060201b60201c565b50565b60008151905060006a636f6e736f6c652e6c6f679050602083016000808483855afa5050505050565b600061012482610174565b61012e818561017f565b935061013e818560208601610190565b610147816101c3565b840191505092915050565b6000602082019050818103600083015261016c8184610119565b905092915050565b600081519050919050565b600082825260208201905092915050565b60005b838110156101ae578082015181840152602081019050610193565b838111156101bd576000848401525b50505050565b6000601f19601f8301169050919050565b610b07806101e36000396000f3fe608060405234801561001057600080fd5b50600436106100575760003560e01c80631468ce401461005c578063535c99591461008c5780639a994335146100a8578063aa6ca808146100c6578063f5c6ca08146100e4575b600080fd5b61007660048036038101906100719190610710565b610100565b60405161008391906108b1565b60405180910390f35b6100a660048036038101906100a19190610739565b610118565b005b6100b061029a565b6040516100bd919061086d565b60405180910390f35b6100ce610359565b6040516100db91906108b1565b60405180910390f35b6100fe60048036038101906100f99190610739565b61039f565b005b60006020528060005260406000206000915090505481565b806000803373ffffffffffffffffffffffffffffffffffffffff1673ffffffffffffffffffffffffffffffffffffffff16815260200190815260200160002060008282546101669190610977565b9250508190555060005b600180549050811015610296573373ffffffffffffffffffffffffffffffffffffffff16600182815481106101ce577f4e487b7100000000000000000000000000000000000000000000000000000000600052603260045260246000fd5b906000526020600020906002020160000160009054906101000a900473ffffffffffffffffffffffffffffffffffffffff1673ffffffffffffffffffffffffffffffffffffffff161415610283578160018281548110610257577f4e487b7100000000000000000000000000000000000000000000000000000000600052603260045260246000fd5b906000526020600020906002020160010160008282546102779190610977565b92505081905550610296565b808061028e90610a1a565b915050610170565b5050565b60606001805480602002602001604051908101604052809291908181526020016000905b8282101561035057838290600052602060002090600202016040518060400160405290816000820160009054906101000a900473ffffffffffffffffffffffffffffffffffffffff1673ffffffffffffffffffffffffffffffffffffffff1673ffffffffffffffffffffffffffffffffffffffff168152602001600182015481525050815260200190600101906102be565b50505050905090565b60008060003373ffffffffffffffffffffffffffffffffffffffff1673ffffffffffffffffffffffffffffffffffffffff16815260200190815260200160002054905090565b806000803373ffffffffffffffffffffffffffffffffffffffff1673ffffffffffffffffffffffffffffffffffffffff16815260200190815260200160002060008282546103ed9190610921565b925050819055506000805b600180549050811015610522573373ffffffffffffffffffffffffffffffffffffffff1660018281548110610456577f4e487b7100000000000000000000000000000000000000000000000000000000600052603260045260246000fd5b906000526020600020906002020160000160009054906101000a900473ffffffffffffffffffffffffffffffffffffffff1673ffffffffffffffffffffffffffffffffffffffff16141561050f576001915082600182815481106104e3577f4e487b7100000000000000000000000000000000000000000000000000000000600052603260045260246000fd5b906000526020600020906002020160010160008282546105039190610921565b92505081905550610522565b808061051a90610a1a565b9150506103f8565b50806105d257600160405180604001604052803373ffffffffffffffffffffffffffffffffffffffff16815260200184815250908060018154018082558091505060019003906000526020600020906002020160009091909190915060008201518160000160006101000a81548173ffffffffffffffffffffffffffffffffffffffff021916908373ffffffffffffffffffffffffffffffffffffffff1602179055506020820151816001015550505b3373ffffffffffffffffffffffffffffffffffffffff167fb49bf3ec475d4a3f504dfb4d454961ebcfaf4c897f02405bcf3e9d023a3662408360405161061891906108b1565b60405180910390a25050565b6106ba81604051602401610638919061088f565b6040516020818303038152906040527f41304fac000000000000000000000000000000000000000000000000000000007bffffffffffffffffffffffffffffffffffffffffffffffffffffffff19166020820180517bffffffffffffffffffffffffffffffffffffffffffffffffffffffff83818316178352505050506106bd565b50565b60008151905060006a636f6e736f6c652e6c6f679050602083016000808483855afa5050505050565b6000813590506106f581610aa3565b92915050565b60008135905061070a81610aba565b92915050565b60006020828403121561072257600080fd5b6000610730848285016106e6565b91505092915050565b60006020828403121561074b57600080fd5b6000610759848285016106fb565b91505092915050565b600061076e8383610820565b60408301905092915050565b610783816109ab565b82525050565b6000610794826108dc565b61079e81856108ff565b93506107a9836108cc565b8060005b838110156107da5781516107c18882610762565b97506107cc836108f2565b9250506001810190506107ad565b5085935050505092915050565b60006107f2826108e7565b6107fc8185610910565b935061080c8185602086016109e7565b61081581610a92565b840191505092915050565b604082016000820151610836600085018261077a565b506020820151610849602085018261084f565b50505050565b610858816109dd565b82525050565b610867816109dd565b82525050565b600060208201905081810360008301526108878184610789565b905092915050565b600060208201905081810360008301526108a981846107e7565b905092915050565b60006020820190506108c6600083018461085e565b92915050565b6000819050602082019050919050565b600081519050919050565b600081519050919050565b6000602082019050919050565b600082825260208201905092915050565b600082825260208201905092915050565b600061092c826109dd565b9150610937836109dd565b9250827fffffffffffffffffffffffffffffffffffffffffffffffffffffffffffffffff0382111561096c5761096b610a63565b5b828201905092915050565b6000610982826109dd565b915061098d836109dd565b9250828210156109a05761099f610a63565b5b828203905092915050565b60006109b6826109bd565b9050919050565b600073ffffffffffffffffffffffffffffffffffffffff82169050919050565b6000819050919050565b60005b83811015610a055780820151818401526020810190506109ea565b83811115610a14576000848401525b50505050565b6000610a25826109dd565b91507fffffffffffffffffffffffffffffffffffffffffffffffffffffffffffffffff821415610a5857610a57610a63565b5b600182019050919050565b7f4e487b7100000000000000000000000000000000000000000000000000000000600052601160045260246000fd5b6000601f19601f8301169050919050565b610aac816109ab565b8114610ab757600080fd5b50565b610ac3816109dd565b8114610ace57600080fd5b5056fea264697066735822122069dfa54aa43158de77905db3e139e1a12a9cc74a99da1e92ea0a7812d88984c264736f6c63430008000033",
    "linkReferences": {},
    "deployedLinkReferences": {}
}